:020000040800F2
:1000000000800120AD070008FD070008FD0700087B
:10001000FD070008FD070008FD07000800000000BC
:10002000000000000000000000000000FD070008C4
:100030000000000000000000FD070008B5050008F2
:10004000FD070008FD070008FD070008FD07000880
:10005000FD070008FD070008FD070008FD07000870
:10006000FD070008FD070008FD070008FD07000860
:10007000FD070008FD070008FD070008FD07000850
:10008000FD070008FD070008FD070008FD07000840
:10009000FD070008FD070008FD070008FD07000830
:1000A000FD070008FD070008FD070008FD07000820
:1000B000FD070008FD070008FD070008FD07000810
:1000C000FD070008FD070008FD070008FD07000800
:1000D000FD070008FD07000851070008FD0700089C
:1000E00085070008FD070008FD070008FD07000858
:1000F000FD070008FD070008FD070008FD070008D0
:10010000FD070008FD070008FD070008FD070008BF
:10011000FD070008FD070008FD070008FD070008AF
:10012000FD070008FD070008FD070008FD0700089F
:10013000FD070008FD070008FD070008FD0700088F
:10014000FD070008FD070008FD070008FD0700087F
:10015000FD070008FD070008FD070008FD0700086F
:10016000FD070008FD070008FD070008FD0700085F
:10017000FD070008FD070008FD070008000000005B
:0C018000FD070008FD070008FD0700084F
:10018C0010B5054C237833B9044B13B10448AFF3C5
:10019C0000800123237010BD4C01002000000000E2
:1001AC001009000808B5034B1BB103490348AFF312
:1001BC00008008BD0000000050010020100900085C
:1001CC0070B50D4D0D4C641BA4100026A64209D130
:1001DC000B4D0C4C00F096FB641BA4100026A642A1
:1001EC0005D170BD55F8043B98470136EEE755F83C
:1001FC00043B98470136F2E7980A0008980A000871
:10020C00980A0008A00A000870477047024B13B107
:10021C00024800F005B870470000000039020008E1
:10022C00002301461A46184600F014B838B5074D9D
:10023C00074C641BA4101CB9BDE8384000F068BB27
:10024C00013C55F824309847F5E700BFA00A000898
:10025C00A40A00082DE9F047DFF874A00646DAF886
:10026C00000098460F469146FFF7CEFF164B1C68D0
:10027C000CB9164C1C606568DAF800001F2D05DD02
:10028C00FFF7C3FF4FF0FF30BDE8F0879EB104EBE2
:10029C0085010122C1F88890D4F88831AA40134313
:1002AC00C4F88831022EC1F8088102BFD4F88C3111
:1002BC001343C4F88C316B1C0235636044F8257011
:1002CC00FFF7A3FF0020DFE7A4020020A802002014
:1002DC0048010020014B1868704700BF0000002047
:1002EC0010B5044602231A4606214FF0904000F048
:1002FC000DF900F049F90A4B63229A6249F6404025
:10030C00B0FBF4F00138D86260229A611A6A42F0AC
:10031C0001021A621A6842F001021A6010BD00BF95
:10032C0000040040642800D96420054AD36A9BB2BB
:10033C0003FB0000034BA3FB0030400950637047E4
:10034C00000400401F85EB514FEA501C054951F841
:10035C002C3000F01F0001228240134341F82C3056
:10036C00704700BF00E100E00901C9B200F1604034
:10037C0000F5614080F800137047000008B500F0EC
:10038C00FBF80F4B5A6922F0F0025A615A6942F09D
:10039C0020025A6103F580631A6842F400521A6015
:1003AC00DA6842F40052DA609A6822F400529A60D9
:1003BC0001212820FFF7D8FF2820FFF7C5FF08BD33
:1003CC000000014008B5064A136843F0200313608F
:1003DC0002212620FFF7C8FF2620FFF7B5FF08BD36
:1003EC00004400400B4AD36C43F00103D3644FF03C
:1003FC0090431A6822F0F0021A601A6842F0A002C8
:10040C001A601A6A22F47F421A621A6A42F4EE42A5
:10041C001A62704700100240074A936D43F4003390
:10042C009365064B2322DA600C221A601A6842F09C
:10043C0001021A60704700BF0010024000440040E7
:10044C00034BDB6913F0800FFAD0014B98627047B5
:10045C000044004010B5044602E00134FFF7F0FF01
:10046C0020780028F9D110BD10B504684FEA410E70
:10047C004FF0030C0CFA0EFC24EA0C040460046824
:10048C0002FA0EF214430460446801228A4024EA02
:10049C000204446044688B401C434460836823EA34
:1004AC000C03836083689DF8084004FA0EF4234320
:1004BC008360C36823EA0C03C360C3689DF80CC057
:1004CC000CFA0EFC43EA0C03C360436923EA0203F3
:1004DC00436143699DF810208A401343436110BD6A
:1004EC00436901228A4013434361704743690122E7
:1004FC008A4023EA020343617047026901238B405F
:10050C001A4201D00020704701207047F0B585B029
:10051C0005460C461E4600230293019302270097C2
:10052C00FFF7A2FF072C0DD82B6ABC400F22A2406C
:10053C0023EA02032B622B6A06FA04F423432B6290
:10054C0005B0F0BD6B6A083CA4000F22A24023EA60
:10055C0002036B626B6AA64033436B62F0E70000E8
:10056C00044BDA6C42F00102DA64DA6C42F00402F9
:10057C00DA64704700100240024A136E43F0010324
:10058C001366704700100240024A936D43F0020359
:10059C0093657047001002404FF0E02340F69F72C5
:1005AC005A6107221A617047024A136801331360BB
:1005BC00704700BF38040020034B1A68024B1B68BD
:1005CC009B1A8342FAD370473804002030B585B0AB
:1005DC00FFF7C6FF4FF47A70FFF782FE0020FFF79B
:1005EC00A1FE0024029401940125009523462A467D
:1005FC0005214FF09040FFF737FF029401950095CD
:10060C00234622460D214648FFF72EFFFFF7C4FF75
:10061C00FFF7E8FEFFF700FFFFF7D4FEFFF7AEFE93
:10062C004048FFF717FF0A20FFF77CFE40F6B83072
:10063C00FFF7C2FF1920FFF775FE40F6B830FFF741
:10064C00BBFF4B20FFF76EFE40F6B830FFF7B4FF50
:10065C002046FFF767FE51E0334B00221A6005215C
:10066C004FF09040FFF73CFF4EE005214FF09040DB
:10067C00FFF73CFF4EE02046FFF754FE0A20FFF741
:10068C009BFF0134E4B2642CF5D9642008E0C4B2B9
:10069C002046FFF747FE0A20FFF78EFF601E40B290
:1006AC000028F4DA214BDB6913F0200F26D01F4B06
:1006BC005B6ADBB21E4A1278FF2A1FD0511CC9B2EA
:1006CC001B4801701B4883540D2B01D00A2B15D1EC
:1006DC0018480023435400F08CF864281CD8C0B28E
:1006EC00FFF720FE1448FFF7B5FE1248FFF7B2FEE5
:1006FC001248FFF7AFFE0E4B00221A700D2108486E
:10070C00FFF7FBFE0028A7D1074B1A6840F6B7335A
:10071C009A42AAD80024B6E70948FFF79BFEEAE7FD
:10072C000008004828090008380400200044004054
:10073C003C04002040040020400900085409000833
:10074C0058090008094BDB6913F0200F00D17047E2
:10075C0010B5064B5C6AE4B20548FFF77BFE2046F9
:10076C00FFF76EFE0348FFF775FE10BD0044004016
:10077C00780900088409000808B5074B5B6913F475
:10078C00005F00D108BD044A536943F40053536120
:10079C000248FFF75FFEF5E70004014088090008F6
:1007AC000D488546AFF300800C480D490D4A0023D7
:1007BC0002E0D458C4500433C4188C42F9D30A4A0A
:1007CC000A4C002301E013600432A242FBD3FFF772
:1007DC00F7FCFFF7FBFEFEE7008001200000002085
:1007EC004C010020A40A00084C0100204005002008
:1007FC00FEE70A22002100F07BB80000242B2DE933
:10080C00F0478646904601D8012B06D1FFF762FDD2
:10081C00162303600020BDE8F08734480D462A46B5
:10082C0015F8014B065D16F00806F8D12D2C10D1E9
:10083C002C780126951C33F0100215D1302C0DD1DB
:10084C002A7802F0DF02582A08D16C78023510237E
:10085C000AE02B2C04BF2C78951CECE7002BF6D16E
:10086C00302C14BF0A23082306F1004C0CF1FF3C7A
:10087C000022BCFBF3F9104603FB19CAA4F13007A4
:10088C00092F0FD83C46A3421BDD571C07D08145CE
:10089C0014D301D1A24511DB00FB0340012215F852
:1008AC00014BEBE7A4F14107192F01D8373CEAE7DC
:1008BC00A4F16107192F04D8573CE4E74FF0FF323D
:1008CC00EDE7531C08D12223CEF800306046B8F176
:1008DC00000FA0D0691E06E006B14042B8F1000F2F
:1008EC0099D0002AF6D1C8F8001094E797090008AF
:1008FC0013460A46014602480068FFF77FBF00BF57
:10090C0000000020F8B500BFF8BC08BC9E4670473C
:0C091C00F8B500BFF8BC08BC9E46704750
:1009280053697374656D6120496E696369616C69A7
:100938007A61646F210D0A004272696C6C6F2061E4
:100948006A75737461646F2061200000250D0A00C8
:1009580056616C6F722066756572612064652072DD
:10096800616E676F2028302D313030290D0A000064
:1009780055415254204952513A2000000D0A0000B6
:10098800426F74C3B36E20495251210D0A000020F2
:100998002020202020202020282828282820202027
:1009A80020202020202020202020202020202088D7
:1009B800101010101010101010101010101010043B
:1009C800040404040404040404101010101010108B
:1009D800414141414141010101010101010101017F
:1009E8000101010101010101010110101010101095
:1009F800424242424242020202020202020202024F
:100A0800020202020202020202021010101020006A
:100A180000000000000000000000000000000000CE
:100A280000000000000000000000000000000000BE
:100A380000000000000000000000000000000000AE
:100A4800000000000000000000000000000000009E
:100A5800000000000000000000000000000000008E
:100A6800000000000000000000000000000000007E
:100A7800000000000000000000000000000000006E
:100A8800000000000000000000000000000000005E
:080A980019020008B101000879
:040AA0008D010008BC
:100AA4000800002000000000000000006801002091
:100AB400D0010020380200200000000000000000E7
:100AC4000000000000000000000000000000000022
:100AD4000000000000000000000000000000000012
:100AE4000000000000000000000000000000000002
:100AF40000000000000000000000000000000000F2
:100B040000000000000000000000000000000000E1
:100B140000000000000000000000000000000000D1
:100B240000000000000000000000000000000000C1
:100B340000000000000000000000000000000000B1
:100B440001000000000000000E33CDAB34126DE64E
:100B5400ECDE05000B0000000000000000000000B7
:100B64000000000000000000000000000000000081
:100B74000000000000000000000000000000000071
:100B84000000000000000000000000000000000061
:100B94000000000000000000000000000000000051
:100BA4000000000000000000000000000000000041
:100BB4000000000000000000000000000000000031
:100BC4000000000000000000000000000000000021
:100BD4000000000000000000000000000000000011
:0C0BE4000000000000000000A002002043
:04000005080007AD3B
:00000001FF
