:020000040800F2
:10000000008001202905000879050008790500080D
:10001000790500087905000879050008000000004E
:10002000000000000000000000000000790500084A
:100030000000000000000000790500081905000814
:100040007905000879050008790500087905000898
:100050007905000879050008790500087905000888
:100060007905000879050008790500087905000878
:100070007905000879050008790500087905000868
:100080007905000879050008790500087905000858
:100090007905000879050008790500087905000848
:1000A0007905000879050008790500087905000838
:1000B0007905000879050008790500087905000828
:1000C0007905000879050008790500087905000818
:1000D0007905000879050008790500087905000808
:1000E00079050008790500087905000879050008F8
:1000F00079050008790500087905000879050008E8
:1001000079050008790500087905000879050008D7
:1001100079050008790500087905000879050008C7
:1001200079050008790500087905000879050008B7
:1001300079050008790500087905000879050008A7
:100140007905000879050008790500087905000897
:100150007905000879050008790500087905000887
:100160007905000879050008790500087905000877
:1001700079050008790500087905000800000000ED
:0C018000790500087905000879050008E1
:10018C0010B5054C237833B9044B13B10448AFF3C5
:10019C0000800123237010BD080000200000000027
:1001AC007C05000808B5034B1BB103490348AFF3AA
:1001BC00008008BD000000000C0000207C05000839
:1001CC0070B50D4D0D4C641BA4100026A64209D130
:1001DC000B4D0C4C00F0CCF9641BA4100026A6426D
:1001EC0005D170BD55F8043B98470136EEE755F83C
:1001FC00043B98470136F2E7BC050008BC05000833
:10020C00BC050008C405000870477047024B13B1C9
:10021C00024800F005B870470000000039020008E1
:10022C00002301461A46184600F014B838B5074D9D
:10023C00074C641BA4101CB9BDE8384000F09EB9F3
:10024C00013C55F824309847F5E700BFC405000879
:10025C00C80500082DE9F047DFF874A00646DAF867
:10026C00000098460F469146FFF7CEFF164B1C68D0
:10027C000CB9164C1C606568DAF800001F2D05DD02
:10028C00FFF7C3FF4FF0FF30BDE8F0879EB104EBE2
:10029C0085010122C1F88890D4F88831AA40134313
:1002AC00C4F88831022EC1F8088102BFD4F88C3111
:1002BC001343C4F88C316B1C0235636044F8257011
:1002CC00FFF7A3FF0020DFE7280000202C00002010
:1002DC00000000200B4AD36C43F00103D3644FF0B1
:1002EC0090431A6822F0F0021A601A6842F0A002D9
:1002FC001A601A6A22F47F421A621A6A42F4EE42B7
:10030C001A62704700100240074A936D43F40033A1
:10031C009365064B2322DA600C221A601A6842F0AD
:10032C0001021A60704700BF0010024000440040F8
:10033C00034BDB6913F0800FFAD0014B98627047C6
:10034C000044004010B5044602E00134FFF7F0FF12
:10035C0020780028F9D110BD10B504684FEA410E81
:10036C004FF0030C0CFA0EFC24EA0C040460046835
:10037C0002FA0EF214430460446801228A4024EA13
:10038C000204446044688B401C434460836823EA45
:10039C000C03836083689DF8084004FA0EF4234331
:1003AC008360C36823EA0C03C360C3689DF80CC068
:1003BC000CFA0EFC43EA0C03C360436923EA020304
:1003CC00436143699DF810208A401343436110BD7B
:1003DC00436901228A4013434361704743690122F8
:1003EC008A4023EA020343617047026901238B4070
:1003FC001A4201D00020704701207047044BDA6C80
:10040C0042F00102DA64DA6C42F00402DA647047FA
:10041C00001002404FF0E02340F69F725A61072211
:10042C001A61704730B585B0FFF7E8FF00240294DD
:10043C0001940125009523462A4605214FF0904052
:10044C00FFF78AFF029401950095234622460D2161
:10045C002648FFF781FFFFF7DDFFFFF73BFFFFF7B4
:10046C0053FF2348FFF76EFF1CE0224B00221A605B
:10047C0005214FF09040FFF7ABFF19E005214FF03D
:10048C009040FFF7ABFF19E01B4D00246C541B4848
:10049C00FFF758FF2846FFF755FF1948FFF752FFA3
:1004AC00184B1C700D211148FFF79FFF0028DCD161
:1004BC00104B1A6840F6B7339A42DFD8124BDB69FF
:1004CC0013F0200FEED0104B5B6ADBB20D4A1278A2
:1004DC00FF2AE7D0511CC9B20A4801700648835460
:1004EC000D2BD1D00A2BDDD1CEE700BF0008004880
:1004FC009405000804000020C0010020AC05000891
:10050C00B8050008BC01002000440040024A1368F2
:10051C0001331360704700BF040000200D4885466E
:10052C00AFF300800C480D490D4A002302E0D4586B
:10053C00C4500433C4188C42F9D30A4A0A4C002321
:10054C0001E013600432A242FBD3FFF739FEFFF740
:10055C0069FFFEE700800120000000200800002059
:10056C00C805000808000020C0020020FEE70000BB
:10057C00F8B500BFF8BC08BC9E467047F8B500BF84
:08058C00F8BC08BC9E46704754
:1005940053697374656D6120496E696369616C693F
:1005A4007A61646F210D0A00526563696269646F40
:0805B4003A2000000D0A0000CE
:0805BC0019020008B10100085A
:0405C4008D0100089D
:0805C8002400002011000000D6
:0400000508000529C1
:00000001FF
